:020000040800F2
:1000000068F30020D1020008716F0008013A00086F
:100010006D6F0008111D000887AC0008000000008B
:10002000000000000000000000000000390200088D
:1000300025250008000000007D020008CF9600087A
:10004000EB020008EB020008EB020008EB020008DC
:10005000EB020008EB02000829250008BD25000876
:1000600051260008E1260008EB020008EB02000818
:10007000EB020008EB020008EB020008EB020008AC
:10008000EB020008EB020008EB020008EB0200089C
:10009000EB020008EB020008EB020008EB0200088C
:1000A000EB020008EB020008EB020008EB0200087C
:1000B000EB020008EB020008EB020008EB0200086C
:1000C000EB020008EB020008EB020008EB0200085C
:1000D000EB020008F9A80008EB020008EB02000898
:1000E000EB020008EB020008EB020008EB0200083C
:1000F000EB020008EB020008EB020008EB0200082C
:10010000EB020008CD770008EB020008EB020008C4
:10011000EB020008EB020008EB020008EB0200080B
:10012000EB020008EB020008EB020008EB020008FB
:1001300000F002F800F070F80AA090E8000C824489
:100140008344AAF10107DA4501D100F065F8AFF266
:10015000090EBAE80F0013F0010F18BFFB1A43F0A5
:1001600001031847D0310100F03101000A444FF07B
:10017000000C10F8013B13F0070408BF10F8014B06
:100180001D1108BF10F8015B641E05D010F8016B4B
:10019000641E01F8016BF9D113F0080F1EBF10F8AF
:1001A000014BAD1C0C1B09D16D1E58BF01F801CBD2
:1001B000FAD505E014F8016B01F8016B6D1EF9D555
:1001C0009142D6D37047000000230024002500266A
:1001D000103A28BF78C1FBD8520728BF30C148BFAA
:1001E0000B607047662910F0A487642900F0028133
:1001F000782900F06681732900F065860020704739
:100200001FB500F0D5FE0400002000210FF0B8FF5C
:10021000E0601FBD10B510BD00F0CAFF1146FFF72A
:10022000EFFF0DF065F900F0E8FF03B4FFF7F2FF10
:1002300003BC0AF0C4FE0000224B19680868B0E84D
:10024000F00F80F30988BFF36F8F4FF0000080F349
:1002500011884EF00D0E704700000000064800683F
:10026000006880F3088862B661B6BFF34F8FBFF3B2
:100270006F8F00DF00BF00BF08ED00E0EFF30980E3
:10028000BFF36F8F0F4B1A6820E9F00F106008B5AD
:100290004FF0500080F31188BFF34F8FBFF36F8F83
:1002A0000FF036F94FF0000080F31188BDE80840E8
:1002B00019680868B0E8F00F80F30988BFF36F8F02
:1002C000704700BF88010020EFF3058070470000F1
:1002D0000948804709480047FEE7FEE7FEE7FEE7DA
:1002E000FEE7FEE7FEE7FEE7FEE7FEE70448054916
:1002F000054A064B70470000E196000831010008EE
:1003000068ED002068F3002068EF002068EF00200F
:10031000704710B54C1084EA530404D54042C1F133
:10032000000138BF491E1B4204D55242C3F10003ED
:1003300038BF5B1E00F0AEFA14F0804F04D040428C
:10034000C1F1000138BF491E14F0004F04D05242E1
:10035000C3F1000338BF5B1E10BD00000FB4044999
:1003600010B503AA029800F0B3FD10BC5DF814FBB1
:10037000280000200FB41CB5084B06AA7B44694630
:100380000090059800F075FD04460020694600F0D5
:1003900083FD20461CBC5DF814FB0000190B000017
:1003A00070B50C460546012A05D02878800600D590
:1003B000EA69002302E0012305E05B1C934202D2BC
:1003C000E05C0028F9D1A869E618C01AA861286A7B
:1003D000184428622846AFF3008004E0D5E90121E3
:1003E00014F8010B9047B442F8D32846AFF30080CD
:1003F00070BD00002DE9F041064600241068752903
:10040000314616A510D0AFF30080002802DA404232
:1004100013A507E031688A0701D512A502E0490754
:1004200004D511A5012401E0AFF3008000210A22C8
:1004300006F1240709E0B0FBF2FCB0FBF2F302FB8B
:100440001C00303078541846491C0028F3D123464C
:100450002A463046BDE8F04100F09EBA0000000098
:100460002D0000002B00000020000000F0B40D461D
:100470000188090502D5214C7C4402E01F4C7C44D4
:100480000E34002100F1240608E002F00F071209E3
:10049000E75D42EA03721B097754491C52EA0307DD
:1004A000F3D102780023120704D5702D06D009B1CC
:1004B000022311342246F0BC00F06EBA012310343E
:1004C000F8E770B504460D4621461068AFF300808A
:1004D000024629462046BDE870400023C6E7D21DEB
:1004E00022F00703D3E90023C0E70368126843F052
:1004F000200303600823C3610023B7E784290100B8
:100500002DE9F05F894604464FF0000ADFF874B128
:10051000FB44C0F820A02046E1688847002874D03A
:10052000252806D0D4E901219047206A401C20628A
:10053000F1E700265F462046E16888472028054607
:1005400007DB312D05D2781910F8200C08B10643CD
:10055000F1E7B00701D526F00406C4F81CA0002777
:10056000C4F818A02A2D09D028460AF021FD38B376
:1005700004EB8708303DC8F8185019E059F8041BFF
:10058000204604EB87029161E1688847012F054608
:1005900018D1E069002820DA26F020061DE0D8F8FE
:1005A000180000EB800005EB40003038C8F8180058
:1005B0002046E168884705460AF0FAFC0028EED19B
:1005C000012F0AD02E2D08D12046E16888477F1CD4
:1005D0000546022F46F02006C4DBA069002803DA96
:1005E000404246F00106A061F00701D026F0100657
:1005F0006C2D0BD0682D09D04C2D39D06A2D35D0FB
:10060000742D35D07A2D33D016E038E0E1682F46CE
:1006100020468847B842054609D16C2F26D04FF4B2
:100620008060E168064320468847054604E06C2F59
:100630001AD04FF4807006430DB3A5F1410019287C
:1006400002D8203546F400664A46294620462660F0
:100650004E46FFF7C7FD80B101280BD0F61D26F0EE
:10066000070000F1080956E74020E4E78020D8E7BA
:100670000020D6E706F104094DE7284652E7206A34
:10068000BDE8F09F1429010040EA0103024630B59D
:100690009B0710D14FF0013400E008C208C91D1BB0
:1006A0009D4315EAC41FF8D013F0FF0102F8011BA7
:1006B0000DD01B0AF8E711F8013B002B02F8013BB3
:1006C00005D011F8013B002B02F8013BF3D130BDFE
:1006D00010B5431C02E010F8011B71B18107FAD17B
:1006E0004FF0013202C88C1A8C4314EAC211F9D0BF
:1006F000C01A0A0603D0C01E10BDC01A10BD0A04DD
:1007000001D0801E10BD0902FCD0401E10BD421E4B
:1007100012F8013F002BFBD111F8013B002B02F82E
:10072000013BF9D17047032A40F2308010F0030CEE
:1007300000F0158011F8013BBCF1020F624498BF34
:1007400011F801CB00F8013B38BF11F8013BA2F1D1
:10075000040298BF00F801CB38BF00F8013B11F04C
:10076000030300F0C783083AC0F0088051F8043B47
:10077000083A51F804CBA0E80810F5E7121D5CBF59
:1007800051F8043B40F8043BAFF30080D20724BF8C
:1007900011F8013B11F801CB48BF11F8012B24BF20
:1007A00000F8013B00F801CB48BF00F8012B70476F
:1007B00002F0FF0343EA032242EA024200F002B8D9
:1007C0004FF000020429C0F0128010F0030C00F07A
:1007D000C583CCF1040CBCF1020F18BF00F8012B4B
:1007E000A8BF20F8022BA1EB0C0100F0B7BB5FEA19
:1007F000C17C24BF00F8012B00F8012B48BF00F892
:10080000012B70474FF0013C50F8042B51F8043B8A
:100810009A4221D1A2EB0C03934313EACC1317D1D4
:1008200050F8042B51F8043B9A4215D1A2EB0C036B
:10083000934313EACC130BD150F8042B51F8043B2B
:100840009A4209D1A2EB0C03934313EACC13DBD0F9
:100850004FF00000704700BFD01A01BAB1FA81F121
:1008600001F0180122FA01F0CB40C1F12001DBB206
:10087000C0B2C01A2CFA01F3D11A914311EAC31184
:10088000E6D170477047704770477047004870471F
:1008900004ED002053EA020C00F069802DE9F04BD2
:1008A0004FF00006002B1FBFB3FA83F503FA05F4DF
:1008B00024FA05F65E4012BF1643B2FA82F502FA38
:1008C00005F4C5F120051EBF22FA05FC44EA0C041C
:1008D000203556EA044C4FEA144418BF641C4FF00C
:1008E00000084FF00009904271EB030C39D3002946
:1008F00019BFB1FA81F701FA07F6B0FA80F700FAEA
:1009000007F6C7F120071EBF20FA07FC46EA0C06CF
:100910002037B6FBF4FCA7EB0507103F07F01F0BD1
:10092000CBF120060CFA0BFB2CFA06F644BFB346BB
:100930000026202FA4BF5E464FF0000B5BEA060C9A
:1009400008BF4FF0010B19EB0B09ABFB027C48EB26
:100950000608C01B06FB02CC0BFB03CC71EB0C01A1
:10096000C1E70B46024641464846BDE8F08B13B549
:100970004FF000004FF00001AFF30080BDE81C40D5
:10098000704710B5FFF782FF006810BD10B5044630
:10099000FFF77CFF046010BD2DE9F0470D46994636
:1009A0009246044600F124080168880604D5E069EF
:1009B00021F01001216000E00120A84201DD471B69
:1009C00000E00027A1697A1902EB0900081AA0616A
:1009D0002078C00602D42046AFF30080002608E04D
:1009E000D4E901211AF806009047206A401C761CC1
:1009F00020624E45F4DB2078C0060AD52046AFF3CE
:100A0000008006E0D4E9012130209047206A401C94
:100A10002062381EA7F10107F4DC07E0D4E90121C8
:100A200018F805009047206A401C2062281EA5F196
:100A30000105F3DC2046AFF300802078000602D5E4
:100A40000220BDE8F0870120FBE770472DE9FF4F4A
:100A50000C461E464FF0FF378BB0D2E90001DDF89F
:100A600060800A908A46C1F30A5505B93D460021C7
:100A700008464FF00000BAF1000F00F4400005DA1C
:100A800000EB80004FF4400101EA50004FEA90591A
:100A9000B9F1010F00DDB9460A9850EA4A000ED0BC
:100AA00044F61050A5F2FF3545432F14B8F1000F5E
:100AB0001ED07542291E1EDDC9F100021CE0B8F1EE
:100AC000010F4FF0000001D0302103E0F24305E0B8
:100AD0002154401CB042FBDB30460022002121544F
:100AE0000B99C1F80880C1E900200FB0BDE8F08F74
:100AF000BD1B6D1CDEE74A4600DA694206A800F01D
:100B0000E1FA06AB93E8070003AB83E80700504621
:100B10000A9900F07BFB8DE80700A0F500501F3814
:100B200000900398002D0ADD42F21F014A46084456
:100B3000002303A90390684600F0E4FD09E0A0F556
:100B400000504A461F38002303A90390684600F06E
:100B5000EEFD8DE807000004000C03D04FF0FF30DD
:100B6000410800E01046B8F1000F03D000220092C7
:100B700015461EE0751E05D400F01EFA303262558F
:100B80006D1EF9D5B3460122084302D000227F1C16
:100B900004E02078302801D100227F1E002A099726
:100BA00084D01DE0112D07DA00F006FA30326255CC
:100BB0006D1C50EA0102F5D1084302D00098C8B17B
:100BC0000EE00021681E05E0235C625C6354225441
:100BD000401E491C8142F7DBAB46A81B401E099012
:100BE000002004F80B000B98099AC0F80880C0E9AF
:100BF000002B7AE711264FF0000857E72DE9F04F58
:100C000088460446D21D22F0070191B0D1E90001C7
:100C1000CDE90A010AF0B8F902460B98C00F01D0DD
:100C20002D2007E02068810701D52B2002E020213C
:100C300001EAC000032A099001D0072A05DB034618
:100C40004146204600F0FEF90BE12078800601D5F0
:100C5000E06900E00620B8F1650F814606D0B8F1E2
:100C6000660F18D0B8F1670F70D131E00020B9F1EC
:100C7000110F009001DB112301E009F101030AAA21
:100C800001A90CA8FFF7E2FEDDE90C70002609F1CE
:100C90000105834647E001204B4600904FF0004796
:100CA0000AAA01A90CA8FFF7D1FEDDE90DB00C9945
:100CB0005D46002610B909F101000D18B9EB0500D9
:100CC00003D4C0F1FF3609F10105A5EB09002BE0C3
:100CD000B9F1010F01DA4FF001090020B9F1110F4C
:100CE0000090484601DD112300E003460AAA01A94D
:100CF0000CA8FFF7ABFEDDE90C704D4600268346DD
:100D0000207800070AD4AB4500DA5D4601A8012D22
:100D100004DD411911F8011C302907D04F4502DAD2
:100D200017F1040F04DA012082460FE06D1EEEE792
:100D3000002F02DCED1B3E4403E0781CA84200DDDE
:100D40007D1CB81B00F1010A4FF000472078000716
:100D500003D4AA4501DB4FF0FF3A0021B7F1004F61
:100D60000DF143088DF8431024D002202B23002FCF
:100D700001DA7F422D230A21021EA0F1010000DCCE
:100D80005FB197FBF1FC97FBF1F201FB1C7C17466E
:100D90000CF1300C08F801CDEEE7A8F1010003706A
:100DA0002188090501D5452100E06521A0F1010850
:100DB00000F8011C09980FA9A1EB0807FF1D00B15D
:100DC0000120411901EBEA70A1693844081A401E5C
:100DD000A0612078C00602D42046AFF300800998B5
:100DE00028B1D4E901219047206A401C2062207874
:100DF000C00622D52046AFF300801EE0002E04DBA3
:100E0000B34502DD01A8805D00E03020D4E9012176
:100E10009047206A401C2062761CAAF101005FEA1C
:100E2000000A0AD100F0C4F8C0680168405CD4E947
:100E300001219047206A401C2062281EA5F101056F
:100E4000DCDC07E0D4E9012118F8010B9047206AA7
:100E5000401C2062381EA7F10107F3DC2046AFF3E7
:100E60000080032011B041E601694A1C0261087844
:100E7000704700B58FB0CDE90131002105910549DA
:100E80007944CDE9031011466846FFF739FB0FB0EE
:100E900000BD0000E5FFFFFF0A6802F8010B0A60D1
:100EA000704710B5436913B1AFF3008001E0FFF75D
:100EB00077FA012010BD127800F124010A70002297
:100EC0004A700122EDE711684FF0FF32E9E70000B8
:100ED000074B70B50D467B44FFF7CBFF0446284611
:100EE00000F062F910B14FF0FF3070BD204670BDC8
:100EF000B3BA000010B5203AC0F00B80B1E818502A
:100F0000203AA0E81850B1E81850A0E81850BFF4F3
:100F1000F5AF5FEA027C24BFB1E81850A0E8185092
:100F200044BF18C918C0BDE810405FEA827C24BFE6
:100F300051F8043B40F8043B08BF7047D20728BF74
:100F400031F8023B48BF11F8012B28BF20F8023BC3
:100F500048BF00F8012B70474FF0000200B5134660
:100F600094469646203922BFA0E80C50A0E80C50C9
:100F7000B1F12001BFF4F7AF090728BFA0E80C507A
:100F800048BF0CC05DF804EB890028BF40F8042B73
:100F900008BF704748BF20F8022B11F0804F18BFE0
:100FA00000F8012B704700000048704704ED002056
:100FB0000048704724ED002030B5B0F10A024FEA36
:100FC000900E71F100034EEA817EB0EB0E0061EBF2
:100FD00091014FEA101E4EEA017E10EB0E0041EB2C
:100FE00011114FEA102E4EEA016E10EB0E0041EB8C
:100FF00011214FEA104E4EEA014E10EB0E0041EB6C
:101000001141401841F100014FEAD00040EA41701F
:101010004FEAD10110EB80054FEA810444EA907455
:1010200044EB01046D1944EB0404521BA3414FF03F
:10103000000348BF0A3200D530BD401C41F1000119
:1010400030BD00002DE9F0411F460446032601682B
:10105000072A01F4006004DB08B116A505E016A517
:1010600003E008B115A500E015A521F010002060EF
:10107000A069C01EA0610FB1401EA0612046AFF361
:1010800000804FB1D4E9012138469047206A401CC6
:101090002062C01C206206E0206AFAE7D4E9012140
:1010A00015F8010B9047761EF8D22046AFF300806A
:1010B000BDE8F0814E414E006E616E00494E460023
:1010C000696E66002DE9F047814616468AB03548BC
:1010D00078440DC88DE80D0032487844801C03AC7C
:1010E0000DC884E80D0041F69B300844372190FB81
:1010F000F1F290FBF1F5A5F1800501FB12041B3C18
:1011000002D56442012000E00020DFF898A080466C
:101110000027FA44AAF1BE0A0EE0E0070AD03246E0
:10112000684607EB470101230AEB810100F0FFFA53
:101130008DE8070064107F1C002CEED1194F7F440E
:10114000AE3F19E0E80715D007EB04100DF1180ABF
:1011500090E80E008AE80E00C068F04201D19819AC
:1011600008903246012306A903A800F0E0FA03AB79
:1011700083E807006D10641C002DE3D14FF00103DC
:1011800032466946B8F1000F03A802D000F0BAFA5F
:1011900001E000F0CCFAC9E90001C9F808200AB062
:1011A000BDE8F087E41D0100007B00F0800070477F
:1011B0007546FFF7F9FEAE4605006946534620F036
:1011C0000700854618B020B5FFF790F8BDE820402D
:1011D0004FF000064FF000074FF000084FF0000BF3
:1011E00021F00701AC46ACE8C009ACE8C009ACE8A6
:1011F000C009ACE8C0098D46704710B50446AFF38E
:1012000000802046BDE81040FFF70FB85FEA400CB1
:1012100008BF91F0000F4FEA8C234FEAC12243EA46
:1012200051514FEA1C5018BF00F5F0404FEA300012
:1012300018BF41F000415FEA6C5C00F02980BCF10E
:10124000FF3F08BF40F080407047130C06BF1204F8
:101250004FF0100C4FF0000C130E04BF12020CF1F3
:10126000080C130F04BF12010CF1040C930F04BF00
:1012700092000CF1020CD30F04BF52000CF1010CD0
:1012800011464FF00002A0F11F00A0EB0C007047C8
:1012900011F0004F08BF704731F000413FF4D5AF67
:1012A0000B0C06BF09044FF0100C4FF0000C0B0E96
:1012B00004BF09020CF1080C0B0F04BF09010CF16B
:1012C000040C8B0F04BF89000CF1020CCB0F04BF80
:1012D00049000CF1010CCCF12003A0EB0C0022FA28
:1012E00003F302FA0CF241EA030100F10100704736
:1012F00020F07F4C80EA030023F07F47ACEB07032C
:1013000003F57C5300F0004003F1FF032DE9804911
:101310004FEA154B09B44FEA144325EA0B4E24EA71
:1013200003480FF2042606EB132749083E785FEACC
:10133000320203FB0667C7F5000707FB06F64FEA14
:1013400054374FEAD64606F1020607FB066CCCF18D
:10135000005C4FEA1C472CEA074C07FB06F40CFB29
:1013600006F504EB15464FEA961634BF00204FF001
:1013700000404FEAD13706FB07FC4FEA1C4C0CFB40
:101380000BF7D21B03FB0CF761EB07010CFB0EF70D
:10139000B0EB074072EB17420CFB08F734BFA2EB2F
:1013A0000742B2EB074261EB17414FEA0C444FEAA8
:1013B000910706FB07FC4FEA1C4C0CFB0BF7B0EB4C
:1013C000C74072EB573203FB0CF734BFA2EBC742A6
:1013D000B2EBC74261EB57310CFB0EF7B0EBC70025
:1013E00072EB57720CFB08F734BFA2EBC702B2EBEB
:1013F000C70261EB5771039F4FEA816141EA921185
:1014000004EBCC044FEAD1374FEA826206FB07FCBB
:1014100042EA90124FEA80604FEA1C4C0CFB0BF73B
:10142000D21B03FB0CF761EB07010CFB0EF7B0EBD3
:10143000074072EB17420CFB08F734BFA2EB0742E0
:10144000B2EB074261EB17414FEA8C554FEA910727
:1014500004EB9C2406FB07FC4FEA1C4C0CFB0BF72F
:10146000B0EBC74072EB573203FB0CF734BFA2EB73
:10147000C742B2EBC74261EB57310CFB0EF7B0EB42
:10148000C70072EB57720CFB08F734BFA2EBC70220
:10149000B2EBC70261EB577115EB4C254FEA816146
:1014A00041EA92114FEA82624FEAD13742EA901242
:1014B00006FB07FC44F100044FEA80604FEA1C4C35
:1014C0000CFB0BF7D21B03FB0CF761EB07010CFBCA
:1014D0000EF7B0EB074072EB17420CFB08F734BF76
:1014E000A2EB0742B2EB074261EB174115EB1C156B
:1014F0004FEA813141EA92414FEA823242EA904218
:101500004FEA80304FEA0C7644F1000448EA034386
:101510004EEA0B484FF0000EB2EB080C71EB0307DC
:1015200024BF624639464EEB0E0E4FF0000B0018FA
:10153000524149414BEB0B0BB2EB080C71EB03072B
:101540007BF1000B24BF624639464EEB0E0E4FF086
:10155000000B0018524149414BEB0B0BB2EB080C4E
:1015600071EB03077BF1000B24BF624639464EEB5B
:101570000E0E51EA020718BF46F0010616EB0E7672
:1015800055F1000254F1000103D5BDE88901BDE821
:101590000088BDE88901BDE80048B619524141EB19
:1015A0000101A3F10103704780807F7E7D7C7B7AFF
:1015B0007978777676757473727171706F6E6E6DFF
:1015C0006C6C6B6A6A6968686766666564646363A5
:1015D00062616160605F5F5E5E5D5D5C5C5B5B5A2B
:1015E0005A59595858575756565555555454535398
:1015F00052525251515050504F4F4F4E4E4D4D4DF3
:101600004C4C4C4B4B4B4A4A4A494949484848473D
:10161000474747464646454545444444444343437B
:101620004342424242414141002B9C4630D4770024
:101630002BD01CB54FEA370703B44FF010004FF022
:101640001001BAF1000F06D0BCF1000FDCBF40F072
:10165000080040F008014FF000000FBCBDE810404A
:101660000BF1010BBBF1010F08BF5FEA170722BFA7
:1016700012F1010211F101014FF0004143F10003A9
:1016800000F0004043EA00007047F9D35708D0E764
:1016900046EA064613F1400F4FEA16461FDD13F1E6
:1016A000200FDFBF16430A46002120335B42BED025
:1016B000C3F1200746EA064602FA07F74FEA164644
:1016C00046EA0706C3F1200722FA03F201FA07F7F8
:1016D00021FA03F14FF0000342EA0702A7E746EAC6
:1016E000020646EA06464FEA164646EA0106BCBF2F
:1016F00046EA0646360C4FF000034FF000024FF06A
:10170000000194E72DE9804C9A46934670B491E825
:10171000380007C831EA400C48BF34EA430C03D50F
:10172000FFF7E6FDFFF780FFF0BCBDE8008C2DE978
:10173000804C9A46934670B491E8380007C810F080
:10174000804F08BF13F0804F03D100F005F8FFF77A
:101750006BFFF0BCBDE8008C20F07F4780EA0300FF
:1017600023F07F4C07EB0C03A3F57C5300F0004003
:10177000A3F1FE0392F0000F00F0B38095F0000F8C
:1017800000F077802DE901494FEA11404FEA1446F5
:1017900021EA004800FB06FC24EA064708FB06F69F
:1017A00007FB08F800FB07F718EB06484CEB164C54
:1017B0004FEA124B18EB07484FEA15464CEB17401F
:1017C00022EA0B4E0BFB06FC25EA06470EFB06F64B
:1017D00007FB0EFE0BFB07F71EEB064E4CEB164C01
:1017E0004FF000061EEB074E4CEB174B18EB0B08A7
:1017F00040F1000018EB0E0B58EB000840F1000020
:101800008F1A4FF000013CBFC943661B14BFB5EBF4
:10181000040C00213CBFC943F61B4FEA17444EEAB3
:101820008E0E27EA04454FEA1C4704FB07622CEAA8
:10183000074C05FB07F70CFB05F604FB0CFC16EB4D
:10184000074642EB174216EB0C4642EB1C421BEBE1
:10185000060658EB0202414146EA9E0601D5BDE864
:101860000189B619524141EB0101A3F10103BDE821
:1018700001894FEA14454FEA114724EA054621EA57
:10188000074C05FB07F406FB07F70CFB06F105FB0D
:101890000CFC11EB074144EB17444FEA124711EBE4
:1018A0000C4144EB1C4422EA074C05FB07F206FB03
:1018B00007F70CFB06F605FB0CFC16EB074642EBA4
:1018C000174216EB0C4642EB1C456A1854F1000116
:1018D00048BF7047B619524141EB0101A3F1010322
:1018E000704795F0000F37D04FEA11424FEA144786
:1018F00021EA024624EA074C02FB07F106FB07F740
:101900000CFB06F402FB0CFC14EB074441EB174103
:101910004FEA154714EB0C4441EB1C4125EA074CF8
:1019200002FB07F506FB07F70CFB06F602FB0CFCB7
:1019300016EB074645EB174516EB0C4645EB1C42EC
:10194000121951F1000148BF7047B619524141EBDD
:101950000101A3F1010370474FEA14454FEA114713
:1019600024EA054621EA074C05FB07F106FB07F7C9
:101970000CFB06F24FF0000605FB0CFC12EB0742D5
:1019800041EB174112EB0C4251EB1C4148BF704731
:10199000921841EB0101A3F10103704721B1826864
:1019A00042F00102826003E0826822F0010282605C
:1019B0007047000010B504461248844208D1012146
:1019C000401505F09BFD0021601505F097FD17E01F
:1019D0000D48844208D10121001505F08FFD00213A
:1019E000201505F08BFD0BE00848844208D1012149
:1019F000C80305F083FD00214FF4004005F07EFD93
:101A000010BD00000024014000280140003C0140BE
:101A1000014600208A6802F004020AB1012000E0B9
:101A2000002070470146C86C80B270470246002013
:101A300013680B400BB1012000E000207047014605
:101A400000208A6802F008020AB1012000E00020AC
:101A50007047000030B502460020002350680F4C4C
:101A600020400D790C6844EA0524204350609068BA
:101A70000B4C2040D1E902542C434D7944EA4504F3
:101A800020439060D06A20F470000C7C641EE4B2A5
:101A9000234340EA0350D06230BD0000FFFEF0FF58
:101AA000FDF7F1FFF0B504460D4600200021092D99
:101AB00011DDE068A5F10A0606EB4607072606FADF
:101AC00007F18843A5F10A0606EB460603FA06F17C
:101AD0000843E0600CE0206905EB4507072606FA9D
:101AE00007F1884305EB450603FA06F10843206138
:101AF000072A0FDA606B561E06EB86071F2606FACA
:101B000007F18843561E06EB860605FA06F10843E0
:101B1000606322E00D2A0FDA206BD61F06EB8607E2
:101B20001F2606FA07F18843D61F06EB860605FA3C
:101B300006F10843206310E0E06AA2F10D0606EB0F
:101B400086071F2606FA07F18843A2F10D0606EB69
:101B5000860605FA06F10843E062F0BD816841F0AF
:101B600008018160704721B1826842F4A00282605E
:101B700003E0826822F4A00282607047816841F02D
:101B800004018160704710B501F064FF10BD70B5AD
:101B900006460C46154608E03046721C96B200F028
:101BA00007F804F8010B681E85B2002DF4D170BD52
:101BB00070B50446002601F0FBFF2546E11704EB53
:101BC00011610912A02202EB4101C8B201F0BCFF71
:101BD00002F03AF8E11704EB11610912A4EB0121BC
:101BE000C8B201F0B1FF02F02FF801F0E1FFA1202F
:101BF00001F0AAFF02F028F8002001F06DFF064670
:101C000001F0FCFF304670BD70B505460C46164627
:101C100006E02178284600F009F8681C85B2641CAB
:101C2000301EA6F101018EB2F3D170BD70B504462D
:101C30000E4601F0BDFF2546E11704EB11610912C4
:101C4000A02202EB4101C8B201F07EFF01F0FCFFCF
:101C5000E11704EB11610912A4EB0121C8B201F0F4
:101C600073FF01F0F1FF304601F06EFF01F0ECFF71
:101C700001F0C4FF0A2009F0A5FC70BD00B587B0D3
:101C80000121042005F02AFC0121480205F026FC70
:101C90004FF4004005F0E6FB2020ADF818000020CE
:101CA0008DF81B0006A9184801F068FA1748FFF7DD
:101CB00081FE002001908DF808008DF809004FF496
:101CC000602003900020049001208DF8140001A9E9
:101CD0000E48FFF7BFFE01210C48FFF75FFE0B48DF
:101CE000FFF73CFF00BF0948FFF7A9FE0028FAD123
:101CF0000648FFF743FF00BF0448FFF789FE0028AE
:101D0000FAD107B000BD00000008014000240140E6
:101D100000BFFEE710B5052009F074FC10BD0000FF
:101D200010B500200F4908600F48006820F0F0004F
:101D30000D4908600846006840F030000860FFF771
:101D4000E9FF00200949C1F8A401FFF7E3FF0120E2
:101D500004490860FFF7DEFF00200549C1F884014F
:101D600010BD000084812142041C014000802342F8
:101D70000080214208B50121882005F0AFFB022038
:101D8000ADF8000010208DF8030003208DF802004C
:101D900069460A4801F0F2F90221084801F0CDFA3B
:101DA0004FF40070ADF800006946054801F0E6F90F
:101DB0004FF40071024801F0C0FA08BD000C014068
:101DC000001C014010B500200F4908600F48006852
:101DD00020F0F0000D4908600846006840F030002F
:101DE0000860FFF797FF01200949C1F8A401FFF738
:101DF00091FF012004490860FFF78CFF002005498E
:101E0000C1F8840110BD000084812142041C0140FE
:101E1000008023420080214270B505460024164808
:101E2000006820F0F000144908600846006840F09F
:101E3000800008601E2009F0E5FB002611E000206C
:101E40000E490860FFF766FF01200D49C1F88401C3
:101E50006006040E0B48006808B1601CC4B2701C18
:101E6000C6B2082EEBDB15B9FFF7ACFF01E0FFF7B8
:101E700057FF204670BD0000041C014084812142B0
:101E8000008021422481234270B504461348006833
:101E900020F0F000114908600846006840F030006A
:101EA000086000200E490860FFF734FF002511E0AC
:101EB000E0090C4908606006040E01200A49C1F8D7
:101EC0008401FFF727FF002005490860FFF722FF84
:101ED000681CC5B2082DEBDB70BD0000041C01407E
:101EE00084812142A48123420080214210B50F4801
:101EF000006820F0F0000D4908600846006840F0D6
:101F00003000086001200A4908600A49C1F88401CC
:101F10001E2009F077FB002005490860FFF7FAFE54
:101F200000200449C1F8840110BD0000041C0140D8
:101F3000A48123420080214210B50D48006820F0A2
:101F4000F0000B4908600846006840F03000086067
:101F50000120084908601E2009F054FB00200649B2
:101F6000C1F8A401FFF7D6FE01200449086010BDA6
:101F7000041C01408481214200802342A481234229
:101F800010B500241348006820F0F00011490860E3
:101F90000846006840F08000086001200E49086093
:101FA0000E49C1F88401FFF7B5FE09E0601CC4B218
:101FB000FA2C03DDFFF7C0FF012010BDFFF7AAFEDA
:101FC0000548803800680028F0D10549086000BF46
:101FD000F3E70000041C0140A48123420080214259
:101FE0008481214270B500254FF4803404E08020C4
:101FF00005F0D8FB00B103E0201EA4F10104F6D1E6
:1020000000BF0CB9032070BD40F2FF5005F084FB07
:102010002846F8E770B5044605E01548456B05F01D
:10202000450000B100E0F8E700BF042005F0BAFB6E
:1020300020B1042005F070FB032070BD012005F0E5
:10204000B1FB20B1012005F067FB0120F5E708484E
:102050000069A04201D01020EFE740F2FF50044990
:1020600088630846406908210840C0B2E5E70000DF
:102070000080014070B500264FF4803505E011481E
:10208000446B04F0450000B103E0281EA5F10105F2
:10209000F5D100BF15B104F0040028B103260420D7
:1020A00005F03AFB304670BD012005F07BFB18B10E
:1020B0000126012005F030FB40F2FF5005F02CFB1B
:1020C0003046F0E70080014010B505E00B48446B56
:1020D00004F0450000B100E0F8E700BF042005F07F
:1020E00061FB20B1042005F017FB032010BD40F276
:1020F000FF5005F011FB0020F8E7000000800140D0
:102100002DE9F04105460E464FF0000805E01F4856
:10211000476B07F0450000B100E0F8E700BF04207E
:1021200005F040FB28B1042005F0F6FA0320BDE8D5
:10213000F081012005F036FB20B1012005F0ECFA1A
:102140000120F4E711480069A84201D01020EEE711
:1021500040F2FF5005F0E0FA0C48446904F4604096
:1021600018B9200C30804046E1E704F4005008B173
:102170001320DCE704F4804008B11020D7E704F412
:10218000004008B10F20D2E74046D0E70080014070
:1021900070B500264FF4803505E00F48446B04F01D
:1021A000450000B103E0281EA5F10105F5D100BFEF
:1021B00015B104F0040028B10326042005F0ACFAA0
:1021C000304670BD04F0400018B10026402005F0F4
:1021D000A3FA3046F5E700000080014010B5002466
:1021E0001548406820F4704013494860084640682C
:1021F00040F40040486004E0601CC4B2012009F0D3
:1022000001FA0E48006808B1642CF5DB642C01DB90
:10221000012010BD002404E0601CC4B2012009F0BC
:10222000F1F90648006808B9642CF5DB642C01DB81
:102230000120EEE70020ECE7002001402C012442C1
:1022400008B50121080205F049F94FF40060ADF826
:10225000000010208DF8030003208DF8020069466D
:10226000064800F08BFF4FF40061044801F065F868
:1022700000F068F8FFF7B2FF08BD00000020014041
:1022800010B5002404E0601CC4B2012009F0BAF9C2
:102290000D48006808B1642CF5DB002404E0601CE4
:1022A000C4B2012009F0AEF90748006808B9642CEF
:1022B000F5DB282009F0A6F90348006808B10120E1
:1022C00010BD0020FCE700002C01244270B5002462
:1022D000002506E06006040EFFF7D2FF0443681CE9
:1022E000C5B2082DF6DB204670BD7CB505460E460E
:1022F00000F028F8FFF772FFF8B9002405E0FFF7B7
:10230000E5FF0DF80400601CC4B2052CF7DB9DF856
:1023100000009DF8011008449DF8021008449DF843
:10232000031008449DF80410884208D19DF800006D
:1023300030709DF80200287001E001207CBD002073
:10234000FCE7000010B50C48406820F470400A49D2
:1023500048600846406840F4405048600020074903
:102360000860142009F02EF901200549C1F8AC01DC
:102370001E2009F047F910BD00200140AC012442A5
:102380000000244221B1026842F00102026004E030
:1023900002684FF6FE731A400260704701684FF6FC
:1023A000FE72114001600021016041608160C160E6
:1023B0004B49884208D14A490839496841F00F0120
:1023C000474A083A51608AE045491431884208D1A9
:1023D00043490839496841F0F001414A083A5160DF
:1023E0007DE03F492831884208D13D490839496894
:1023F00041F470613A4A083A516070E038493C3122
:10240000884208D136490839496841F47041344A54
:10241000083A516063E032495031884208D130496E
:102420000839496841F470212D4A083A516056E054
:102430002B496431884208D129490839496841F457
:102440007001274A083A516049E0254978318842AD
:1024500008D123490839496841F07061204A083A97
:1024600051603CE01F49884206D1011F096841F0D4
:102470000F01021F116032E01A491431884208D15D
:102480001849091F096841F0F001164A121F11602E
:1024900025E014492831884208D11249091F0968EA
:1024A00041F470610F4A121F116018E00D493C3170
:1024B000884208D10B49091F096841F47041094A53
:1024C000121F11600BE007495031884207D10549BE
:1024D000091F096841F47021024A121F11607047F8
:1024E000080002400804024010B50022026847F6C6
:1024F000F0739A430C6A8B6823430C6923434C693D
:1025000023438C692343CC6923434C6A23438C6A5D
:1025100023431A430260CB6843600B6883604B68B7
:10252000C36010BD7047000010B50A2009F08EF896
:1025300001211C4800F0F6FE00282BD10AF00AFC0D
:102540001021184800F0EEFE18B910201649086056
:1025500019E02021134800F0E5FE18B90F201249B8
:10256000086010E040210F4800F0DCFE18B90E2092
:102570000D49086007E080210A4800F0D3FE10B939
:102580000D20094908600848016808A0FDF7E6FE2B
:102590000AF088FB002004490860012000F0F4F8EC
:1025A00010BD0000001C014040000020B0B4BCFC85
:1025B000D6B5CEAAA3BA25640D0A000010B50A202C
:1025C00009F044F802211C4800F0ACFE00282BD191
:1025D0000AF0C0FB1021184800F0A4FE18B90C2026
:1025E0001649086019E02021134800F09BFE18B935
:1025F0000B201249086010E040210F4800F092FEC5
:1026000018B90A200D49086007E080210A4800F047
:1026100089FE10B90920094908600848016808A026
:10262000FDF79CFE0AF03EFB0020044908600220F2
:1026300000F0AAF810BD0000001C0140400000207E
:10264000B0B4BCFCD6B5CEAAA3BA25640D0A00006E
:1026500010B50A2008F0FAFF04211F4800F062FEBE
:10266000002832D10AF076FB10211B4800F05AFEF8
:1026700030B908201949086003200AF0BDFE22E0A5
:102680002021154800F04EFE30B90720134908609C
:1026900002200AF0B1FE16E040210F4800F042FE91
:1026A00030B906200D49086000200AF0A5FE0AE0B6
:1026B0008021094800F036FE28B905200749086046
:1026C00001200AF099FE0AF0EDFA002003490860A3
:1026D000042000F059F810BD001C0140400000200B
:1026E00010B50A2008F0B2FF0821204800F01AFEB9
:1026F000002833D10AF02EFB10211C4800F012FEF6
:1027000028B904201A4908601A4908601FE02021EE
:10271000164800F007FE28B903201549086015493E
:10272000086014E04021114800F0FCFD28B90220A7
:102730000F4908600F49086009E080210B4800F04C
:10274000F1FD20B901200A4908600A4908600848DB
:10275000016809A0FDF702FE0AF0A4FA002004496E
:102760000860082000F010F810BD0000001C0140B7
:102770004000002044000020B0B4BCFCD6B5CEAA76
:10278000A3BA25640D0A00000149086070470000E3
:1027900014040140002123498279002A3AD00A46D4
:1027A000126803689A430B461A600A1D1268036890
:1027B0009A430B1D1A60027911440A6803681A4390
:1027C0000A60184A0832126803689A43154B0833A6
:1027D0001A601A1D126803689A43124B0C331A6070
:1027E0004279102A0ED11A1F126803681A430D4B42
:1027F00008331A601A1D126803681A43094B0C3318
:102800001A600DE00749427911440A6803681A43C7
:102810000A6005E0027911440A6803689A430A6075
:10282000704700000004014030B589B01F480068BF
:102830000EF046F904460D461D4800681D4909681A
:102840001D4A1268CDE90445CDE9062108901B48D0
:1028500000681B4909681B4A1268CDE900210290F3
:10286000194803781948027819491A48FDF782FD7A
:10287000184919A0FDF772FD1648FDF729FF044617
:1028800021461AA0FDF76AFD1248FDF721FFC4B2E8
:102890002146104806F0A6FD4FF47A6008F092FE3B
:1028A00017A0FDF75BFD002009B030BD78010020C6
:1028B00084010020800100207C01002074010020A0
:1028C000700100206C0100206901002068010020D7
:1028D0001C300108B01800202D2D2D2D5055422DF3
:1028E0002D2D2D332D2D2D25730D0A002D2D2D2D44
:1028F0005055422D2D2D2D342D2D2D25640D0A00E2
:102900002D2D2D2D5055422D2D2D2D332D2D2D4F6F
:102910004B0D0A0051B18200A2F1C042126842F090
:1029200001038200A2F1C042136009E08200A2F11B
:10293000C0421268034B1A408300A3F1C0431A60DF
:1029400070470000FEFF0F00D0E901121143C2687A
:102950001143026911434269114382691143C269FB
:102960001143026A1143426A1143826A1143C26AE7
:102970001143026B114302689200A2F1C042116040
:10298000816808290BD101688900A1F1C04109685B
:1029900041F0400201688900A1F1C0410A60416B29
:1029A0000968426B526841EA0211426B926841EA3F
:1029B0000221426B928941EA0241426B128A41EA4A
:1029C0000251426B127D41EA0261426B92691143EE
:1029D0000268521C9200A2F1C0421160C16AB1F5B6
:1029E000804F1BD1816B0968826B526841EA0211EA
:1029F000826B926841EA0221826B128A41EA02519B
:102A0000826B127D41EA0261826B92691143026816
:102A10009200A2F1C042C2F8041107E06FF07042C8
:102A200001688900A1F1C041C1F80421704700008C
:102A30000EB50121802004F051FD4FF40060ADF887
:102A4000000010208DF8030003208DF80200694675
:102A5000424800F093FB0221404800F06EFC4FF426
:102A60008060ADF8000048208DF8030069463B48BF
:102A700000F084FB4FF48061384800F05EFCFFF703
:102A800079F9002036490860142008F09BFD0120E8
:102A90003449C1F8AC01322008F094FD00208DF8D3
:102AA0000400012201A900F055FA012201A9A42085
:102AB00000F050FA16208DF80400012201A98020B0
:102AC00000F048FA0C208DF80400012201A98820AA
:102AD00000F040FA022201A9A12000F053F89DF86D
:102AE000040030280DD19DF80500032809D19DF878
:102AF00005009DF8042000EB02211BA0FDF72EFC31
:102B00002AE0042201A948F2401000F0B9FC00209C
:102B10008DF8080001A917A0FDF720FC18480199BD
:102B2000016002208DF80400012201A948F2400052
:102B300000F006FE012201A948F2470000F0A0FCC7
:102B40000A2008F03FFD00208DF80400012201A9B1
:102B500048F2400000F0F4FD00200EBD001C0140D2
:102B6000AC812342008023424354502049443A25FB
:102B7000780D0A004354502049443A25730D0A0049
:102B8000640000202DE9F04106460F461546FFF788
:102B9000ADF97020FFF778F9FFF7F2F9F0B2FFF71F
:102BA00073F9FFF7EDF9FFF7A1F97120FFF76CF961
:102BB000FFF7E6F900240BE0691EA14201D00121D4
:102BC00000E000210846FFF727F93855601CC4B221
:102BD000AC42F1DBFFF7B0F9BDE8F08171B583B02D
:102BE000002001900026D3480078401CD14908708D
:102BF000084600780A2190FBF1F201FB120018B19F
:102C0000CC4800780A287DDACBA1CC48FDF7FAFD44
:102C1000D8B9012203A948F24E1000F031FC9DF80A
:102C20000C0000F08000A8B19DF80C0000F00F002F
:102C3000C349097888420DDC00200190012201A9D6
:102C400048F24E1000F07CFD04E0012203A90220AE
:102C5000FFF798FF9DF80C0000F00F00002851D0FE
:102C60009DF80C0000F00F00B5490978884249DC56
:102C70009DF80C0000F00F01FF208840C4B2B1485D
:102C800090F82050E043C0B240F0C000AD4981F858
:102C9000200008468289AA480078401E0C3121F89D
:102CA0001020A848C28AA6480078401E0A3121F8A0
:102CB0001020042008F086FC00200190ABE0A14821
:102CC00090F820009DF80420012191400840002840
:102CD0002FD099A19948FDF795FDE8BB9A499DF839
:102CE000042031F81200042202A900F0C9FB954823
:102CF00090F8300000F00100E0B19DF808009DF868
:102D0000091000E0C5E000EB012081B28D480C30D5
:102D10009DF8042020F812109DF80A009DF80B1071
:102D200000EB012081B2874816309DF8042020F87E
:102D300012106BE09DF808009DF8091000EB0120CF
:102D400081B2804816309DF8042020F812109DF8BA
:102D50000A009DF80B1000E00CE000EB01207B491D
:102D60000988081A81B277480C309DF8042020F8B1
:102D700012104BE076499DF8042031F8120004222D
:102D800002A9FFF7FFFE6F4890F8300000F0010045
:102D9000E0B19DF809009DF8081001F00F0100EB6B
:102DA0000120684916319DF8042021F812009DF891
:102DB0000B009DF80A1001F00F0100EB01206149A2
:102DC0000C319DF8042021F812001FE09DF8090045
:102DD0009DF8081001F00F0100EB01205B49098804
:102DE000081A81B257480C309DF8042020F81210C0
:102DF0009DF80B009DF80A1001F00F0100EB012077
:102E0000504916319DF8042021F812009DF8040065
:102E1000401CC0B201909DF80400494909788842DD
:102E2000FFF64DAF01264748808948490988884206
:102E300005DC4448C08A45494988884226DD9DF81A
:102E40000C0000F00F0001280ADD3E48C0893D4912
:102E500088810846008BC88200203649087018E037
:102E600037480078401E37490C3131F810000C39D2
:102E7000888133480078401E163131F81000163929
:102E8000C8828020039081F8205002E00020294968
:102E9000087029A12948FDF7B5FC08BB9DF80C0076
:102EA00000F08F0080283BD1264890F8200000F0E9
:102EB000800040B1234890F8200020F08000214994
:102EC00081F820002CE04FF6FF701E498881C882EF
:102ED000084690F8200000F0E00081F820001FE094
:102EE0009DF80C0000F01F00D0B9164890F82000A3
:102EF00000F0800040B1134890F8200020F08000DE
:102F0000104981F820000BE04FF6FF700D498881D1
:102F1000C882084690F8200000F0E00081F8200008
:102F200004480078F02802DD0A2002490870304683
:102F300004B070BD6A000020393131006400002007
:102F40006900002070000020002901085C020020B8
:102F5000F62801082DE9F04105460E4617464FF0C8
:102F60000008FEF7C3FF7020FEF78EFFFFF708F89A
:102F7000E8B2FEF789FFFFF703F800240BE0305DAD
:102F8000FEF782FFFEF7FCFF8046B8F1000F00D08D
:102F900003E0601CC4B2BC42F1DB00BFFEF7CCFF13
:102FA0004046BDE8F08100002DE9FC4107460D4692
:102FB0000026002400200090019008205B49086052
:102FC00010204860402088600020C8604FF4806076
:102FD0000861084604F01CFC1020FFF71BF80446AB
:102FE00014B12046BDE8FC815148008800044F49D7
:102FF000086037204860402088600020C8604FF497
:1030000080600861084604F003FC3720FFF702F8EF
:1030100004460CB12046E5E74FF0FF304549086013
:1030200008204860302088600220C86000200861C5
:1030300001204861084604F08BFB00203B490860F2
:1030400033204860402088600020C8604FF48060D2
:103050000861084604F0DCFB3320FEF7DBFF044682
:103060000CB12046BEE70CE04FF4001004F09AFBD0
:1030700038B104F0C7FB4DF82600761C022E00D3B1
:1030800006E02D48406B40F22A6108400028EBD052
:1030900000BF082004F086FB20B1082004F03CFBB0
:1030A00004209FE7022004F07DFB20B1022004F001
:1030B00033FB022096E7202004F074FB20B120208F
:1030C00004F02AFB06208DE74FF4007004F06AFB41
:1030D00028B14FF4007004F01FFB072082E740F294
:1030E000FF5004F019FB00980006009901F47F419D
:1030F00040EA0120009901F47F0140EA1120009983
:1031000040EA1160686001980006019901F47F416E
:1031100040EA0120019901F47F0140EA1120019960
:1031200040EA1160286020465CE700008812002019
:10313000580000209C1200200080014030B5002281
:103140008B071C0F0F2303FA04F20B4B8C1053F860
:1031500024309343084C8D1044F8253023468C10BE
:1031600053F824308C07240F00FA04F42343024C54
:103170008D1044F8253030BD080001402DE9F041A4
:10318000024600250026002000230024002791F895
:1031900003C00CF00F0591F803C00CF0100CBCF14B
:1031A000000F03D091F802C04CEA050591F800C069
:1031B000BCF1000F31D0146800202BE04FF0010C5F
:1031C0000CFA00F3B1F800C00CEA03069E4220D1CD
:1031D00083004FF00F0C0CFA03F7BC4305FA03FC15
:1031E0004CEA040491F803C0BCF1280F06D14FF05B
:1031F000010C0CFA00FCC2F814C00AE091F803C0FC
:10320000BCF1480F05D14FF0010C0CFA00FCC2F8DC
:1032100010C0401C0828D1D31460B1F800C0BCF124
:10322000FF0F34DD546800202EE000F1080C4FF051
:10323000010808FA0CF3B1F800C00CEA03069E423C
:1032400021D183004FF00F0C0CFA03F7BC4305FAB1
:1032500003FC4CEA040491F803C0BCF1280F05D12B
:1032600000F1080C08FA0CF8C2F8148091F803C0B9
:10327000BCF1480F07D100F1080C4FF0010808FA23
:103280000CF8C2F81080401C0828CED35460BDE86A
:10329000F0810000F0B50A4600230024002100253B
:1032A00000F00046B6F1004F02D11D4EF16901E079
:1032B0001B4E7168C0F3034583B200F44016B6F5A7
:1032C000401F08D121F07061154E766826F07066B7
:1032D000134F7E6012E000F48016B6F5801F06D111
:1032E000032606FA05F4A14341F0706106E0460D9D
:1032F000360103FA06F6B14341F0706122B1460D82
:10330000360103FA06F6314300F00046B6F1004FED
:1033100002D1034EF16101E0014E7160F0BD000089
:10332000000001400246002093680B400BB10120D1
:1033300000E0002070474161704701617047000064
:103340000EB50121802004F0C9F84FF40060ADF8FB
:10335000000010208DF8030003208DF8020069465C
:103360003A48FFF70BFF02213848FFF7E6FF4FF41A
:103370008060ADF8000048208DF8030069463348AE
:10338000FFF7FCFE4FF480613048FFF7D6FFFEF7F1
:10339000F1FC00202E4908600A2008F013F90120F2
:1033A0002C49C1F8AC010A2008F00CF94FF48060F8
:1033B000ADF8000028208DF8030069462348FFF788
:1033C000DDFE4FF480612148FFF7B5FF642008F06F
:1033D000F9F8042201A948F2401000F051F8002049
:1033E0008DF8080001A91CA0FCF7B8FF1DA101A8D9
:1033F000FDF708FA40BB02208DF80400012201A964
:1034000048F2400000F09CF9012201A948F247006F
:1034100000F036F89DF80400602807DA9DF80410E3
:1034200012A0FCF79BFF012000F05CF90A2008F0D5
:10343000C9F800208DF80400012201A948F24000DB
:1034400000F07EF900200EBD0020FCE7001C0140CA
:10345000AC812342008023424354502049443A2502
:10346000730D0A003931343700000000446566618D
:10347000756C74205665723A25640D0A00000000D0
:103480002DE9F04105460F461646FEF72FFD282090
:10349000FEF7FAFCFEF774FD2812FEF7F5FCFEF7C6
:1034A0006FFDE8B2FEF7F0FCFEF76AFDFEF71EFDC9
:1034B0002920FEF7E9FCFEF763FD00240BE0711EF6
:1034C000A14201D0012100E000210846FEF7A4FC42
:1034D0003855601CC4B2B442F1DBFEF72DFDBDE8E7
:1034E000F081000071B583B000240026794800788F
:1034F000401C78490870084600780A2190FBF1F2D8
:1035000001FB120018B1734800780A287EDA012204
:1035100003A948F24E10FFF7B3FF9DF80C0000F02E
:10352000800068B19DF80C0000F00F00062807DA53
:1035300000200190012201A948F24E1000F000F98C
:103540009DF80C0000F00F0000285FD09DF80C00E3
:1035500000F00F000628D9DA9DF80C0000F00F01EA
:10356000FF208840C0B201905B4890F820509DF841
:103570000400C043C0B240F0C000574981F82000A9
:10358000084681898182C18AC183002446E052486D
:1035900090F820000121A140084020B34F4931F8A4
:1035A0001400042202A9FFF76BFF4B4890F830008B
:1035B00000F00100C0B19DF808009DF8091000EB73
:1035C000012081B24448163020F814109DF80A00FA
:1035D0009DF80B1000EB0120C0F5487081B23E4809
:1035E0000C3020F8141017E09DF808009DF8091021
:1035F00000EB012081B238480C3020F814109DF8FF
:103600000A009DF80B1000EB012000E036E081B2CB
:103610003148163020F81410601CC4B2052CB6DBFB
:1036200001262D4880892E490988884205DC2A48D0
:10363000C08A2B49498888421DDD9DF80C0000F0A6
:103640000F0001280ADD2448C089234988810846E3
:10365000008BC88200201F4908700FE01E48808A36
:103660001D4988810846C08BC88280200390084687
:1036700080F8205002E00020164908709DF80C00E8
:1036800000F08F0080281AD1134890F8200000F035
:10369000800040B1104890F8200020F080000E49D2
:1036A00081F820000BE04FF6FF700B498881C8823B
:1036B000084690F8200000F0E00081F8200005485E
:1036C0000078F02802DD0A2002490870304604B074
:1036D00070BD00006B00002070000020C2290108AE
:1036E0005C02002038B50546002400208DF800005B
:1036F0008DF8015000BF09E09DF800000F49095DF9
:103700000844C0B28DF80000601CC4B2B82CF3D3DA
:103710009DF80000C043401CC0B28DF80000B822E4
:10372000064948F2470000F00BF80222694648F2C9
:10373000FF0000F005F8002038BD00000A2901084C
:103740002DE9F04104460E4617464FF00008FEF7FB
:10375000CDFB2820FEF798FBFEF712FC2012FEF7A7
:1037600093FBFEF70DFCE0B2FEF78EFBFEF708FCC4
:1037700000250BE0705DFEF787FBFEF701FC80463D
:10378000B8F1000F00D003E0681CC5B2BD42F1DB08
:1037900000BFFEF7D1FB4046BDE8F08110B500F058
:1037A00059F9012005F02CFE072005F029FE102014
:1037B00005F026FEB42007F005FF10BD2DE9F84FF7
:1037C0000A21022003F0EAFD1FFA80FA50460DF0AC
:1037D0005BFB80460DF074F906464FF066320D4BE8
:1037E0000CF05EFE04460CF0E1FC009000980DF039
:1037F00067F98046084A094B0CF052FE0646084A13
:10380000084B0CF005FD04460CF0D0FC83465846EE
:10381000BDE8F88F66664A3F87A757CA320413C0CF
:103820008195438B6C27304010B50446E1B20723E5
:1038300001220948FEF736F901210748FEF793F9FE
:1038400000BF02210448FEF7F1F80028F9D0024831
:10385000FEF7E8F810BD0000002401402DE9F0411A
:1038600007460C460025002608E03846FFF7DCFF37
:103870000544052007F0A6FE701CC6B2A642F4DB84
:1038800095FBF4F0BDE8F0812DE9F05F82460F462C
:1038900014462046E21704EB5272D2102146E31779
:1038A00004EB5373DB10A4EBC3030BB1012300E063
:1038B00000231A44624302F0FF099AF800600AF1FB
:1038C000010082460578812E05DB402D03DBFF2DAC
:1038D00001D0FF2E0DD14FF0000B06E0002007F8BD
:1038E000010B0BF1010000F0FF0BCB45F6DBBDE84F
:1038F000F09F7F2D03DAA5F14000C5B202E0A5F1EB
:103900004100C5B2A6F18100C6B2BE2000FB065040
:1039100000FB09F80C2C04D0102C0CD0182C1ED154
:1039200013E01048D0F8090000EB08014A46384679
:1039300007F004FA13E00B48D0F8110000EB08017F
:103940004A46384607F0FAF909E00648D0F8190067
:1039500000EB08014A46384607F0F0F900BF00BF07
:1039600000BFC4E7E0EC002070B504460D46082116
:10397000202005F05DFC05F037FC0646300C206089
:10398000B0B22860002070BD70B514210520FFF78B
:1039900065FF84B2B4F5FA6F02DC4FF4FA6404E018
:1039A00040F6B470844200DB044640F6B471081B54
:1039B0000DF052FA064606490DF01CF90546054978
:1039C0000DF076FA044908600846006870BD0000F2
:1039D0000080FC440000C8424C00002008B50121D2
:1039E000042003F07BFD0320ADF8000004208DF8D7
:1039F000030069460148FFF7C1FB08BD000801400C
:103A000000BFFEE710B500200F4908600F480068AE
:103A100020F070400D4908600846006840F04050B2
:103A2000086000200A49C1F89C01022007F0EAFD65
:103A3000012005490860022007F0E4FD0020044948
:103A4000C1F8980110BD000098812142000C01408E
:103A50000080214208B50121082003F03FFDC0206D
:103A6000ADF8000010208DF8030003208DF802004F
:103A700069460448FFF782FBC0210248FFF75DFC5E
:103A800008BD0000000C014010B500200F4908607F
:103A90000F48006820F070400D4908600846006833
:103AA00040F04050086001200A49C1F89C01022002
:103AB00007F0A8FD012005490860022007F0A2FDDB
:103AC00000200449C1F8980110BD000098812142EE
:103AD000000C01400080214270B5054600241748C3
:103AE000006820F07040154908600846006840F002
:103AF00000400860002616E00020114908600220FE
:103B000007F080FD01200F49C1F898016006040EFE
:103B10000B487C38006808B1601CC4B2012007F073
:103B200071FD701CC6B2082EE6DB15B9FFF7ACFFBD
:103B300001E0FFF767FF204670BD0000000C014068
:103B4000988121420080214270B5044615480068E2
:103B500020F07040134908600846006840F040506B
:103B60000860002010490860002517E0E0090E49B0
:103B7000091D08606006040E022007F043FD0120C5
:103B80000A49C1F89801022007F03CFD00200649CF
:103B90000860022007F036FD681CC5B2082DE5DB81
:103BA00070BD0000000C014098812142008021423C
:103BB00010B50F48006820F070400D4908600846B5
:103BC000006840F04050086001200A4908600A4936
:103BD000C1F89801042007F015FD00200549086090
:103BE000042007F00FFD00200349C1F8980110BD23
:103BF000000C01409C8121420080214210B50F48F9
:103C0000006820F070400D4908600846006840F0E8
:103C10004050086000200A4908600A49C1F89C0128
:103C2000042007F0EFFC0120054908600549C1F8B0
:103C30009C01042007F0E6FC10BD0000000C0140D0
:103C4000988121420080214210B500241448006868
:103C500020F07040124908600846006840F00040BB
:103C6000086001200F49086007F0CCFC01200E49D4
:103C7000C1F8980107F0C6FC07E0601CC4B2FA2C3A
:103C800003DDFFF7BBFF012010BD06488038006848
:103C90000028F2D10349091F086000BFF4E70000C3
:103CA000000C01409C8121420080214272B6704785
:103CB00062B670471CB50446002001900090214870
:103CC00000880004204908600D204860402088607A
:103CD0000020C8604FF480600861084603F098FD3A
:103CE0001A48406B009002E01848406B0090009822
:103CF00000F045000028F7D0012003F053FD20B16B
:103D0000012003F009FD01201CBD042003F04AFD41
:103D100020B1042003F000FD0320F5E70B48006903
:103D20000D2801D01020EFE740F2FF5003F0F4FC23
:103D30000648406901900198C0F34320207000209C
:103D4000E2E70000580000208812002000800140B7
:103D500010B506F0C7FF002009F072FC08F0BCF8AF
:103D600011490122486811A108F008F914E010A0D7
:103D7000FCF7F4FA00BF03F067FF0028FBD110A3A3
:103D800010226E2114200AF0B7FE044602E00DA0B6
:103D9000FCF7E4FA002CFAD108F0D6FD0028E6D1B1
:103DA0000CA0FCF7DBFA10BD30020020313A000015
:103DB000D0E8D2AAB8FCD0C2D7D6BFE2210D0A0003
:103DC000303A0000D7D6BFE2B8FCD0C2CAA7B0DCF8
:103DD000A3A10000D2D1D3D0D7D6BFE2A3A10D0AB0
:103DE0000000000070B50446002609480588408898
:103DF00045430021084602F09BFE03F0A5F800BFF2
:103E000002E004480480761CAE42FAD370BD000084
:103E10005C0200200008006C10B50446494884711B
:103E2000002C45D1F020474908804FF4A07048800D
:103E30000846808845F21051884210D14FF4305026
:103E4000404908814FF4285048814FF42C50888114
:103E50004FF4F07008804FF4487048801AE03948F9
:103E6000808841F6631188420DD12C2035490881A4
:103E70002B2048812A2088814FF4F07008804FF46D
:103E80004870488006E02C202E4908812A2048816D
:103E90002B2088812B48808845F2103188424CD1F4
:103EA0004FF4A070274908804FF4F070488044E038
:103EB0004FF4A07023490880F0204880084680888D
:103EC00045F21051884210D14FF430501D490881FD
:103ED0004FF4285048814FF42C5088814FF448709B
:103EE00008804FF4F07048801AE01648808841F648
:103EF000631188420DD12C20124908812A20488163
:103F00002B2088814FF4487008804FF4F07048806F
:103F100006E02C200B4908812A2048812B2088812B
:103F20000848808845F21031884206D14FF4F0707D
:103F3000044908804FF4A0704880002002F0DEFCA5
:103F400010BD00005C0200202DE9FF4F84B08146C7
:103F50008A460020039002900698A0EB0905079876
:103F6000A0EB0A06CDF80490CDF800A0002D01DDED
:103F7000012705E00DB9002702E04FF0FF376D4241
:103F8000002E02DD4FF0010806E016B94FF00008E0
:103F900002E04FF0FF387642B54201DD2C4600E0EA
:103FA00034464FF0000B21E0009A91B2019A90B292
:103FB00000F022F8039828440390029830440290BD
:103FC0000398A04205DD0398001B03900198384434
:103FD00001900298A04205DD0298001B0290009813
:103FE000404400900BF101001FFA80FB601C8345E8
:103FF000DADD08B0BDE8F08F30B504460D4629463D
:10400000204602F095FD02F09FFF02480088024919
:10401000088030BD480000200008006C2DE9F04306
:1040200006460F469046002445460320A0EB48096B
:104030003CE07A1B91B2321990B2FFF7DDFF3A1BD8
:1040400091B2721990B2FFF7D7FF3A1991B2721973
:1040500090B2FFF7D1FF7A1991B2321990B2FFF7FF
:10406000CBFF7A1991B2321B90B2FFF7C5FF3A1914
:1040700091B2721B90B2FFF7BFFF7A1B91B2321B55
:1040800090B2FFF7B9FF3A1B91B2721B90B2FFF7E3
:10409000B3FF641CB9F1000F03DAA000801D814456
:1040A00004E0601B80000A3081446D1EAC42C0DD1C
:1040B000BDE8F08310B503460C463848808845F2C9
:1040C0001051884220D13549488902F037FF181233
:1040D00002F02EFF31494989491C88B202F02EFFB7
:1040E000D8B202F025FF2D49888902F027FF20125F
:1040F00002F01EFF29498989491C88B202F01EFF7F
:10410000E0B202F015FF42E02448808841F66311D6
:10411000884228D12148807920B920480088401E53
:10412000C01A83B21D49488902F008FF181202F034
:10413000FFFED8B202F0FCFE181202F0F9FED8B26F
:1041400002F0F6FE1549888902F0F8FE201202F00E
:10415000EFFEE0B202F0ECFE201202F0E9FEE0B267
:1041600002F0E6FE13E00D49488902F0E7FE18125E
:1041700002F0DEFED8B202F0DBFE0849888902F0C8
:10418000DDFE201202F0D4FEE0B202F0D1FE0348C0
:10419000008903490880881C028010BD5C02002051
:1041A000FE07006C2DE9F04F05460E46174698466F
:1041B000DDF824A04FF0000B781B401C1FFA80FB99
:1041C000344613E02146284602F0B2FC02F0BCFE61
:1041D0004FF0000906E00748A0F800A009F101002F
:1041E0001FFA80F9D945F6DB601C84B24445E9DD4D
:1041F000BDE8F08F0008006C00B59FB001210802F7
:1042000003F03CF901214FF4B47003F067F9012089
:10421000ADF8780010208DF87B0003208DF87A002F
:104220001EA9FE48FEF7AAFF4CF23370ADF87800E5
:1042300018208DF87B0003208DF87A001EA9F8481D
:10424000FEF79CFF4FF68070ADF8780018208DF8CF
:104250007B0003208DF87A001EA9F248FEF78EFF3E
:1042600041F20100ADF8780018208DF87B000320A2
:104270008DF87A001EA9EC48FEF780FF0120089017
:10428000002009900F200A9000200B900C900D90B8
:104290000E9001900290032003900020049005905E
:1042A0000690079006200F9000201090119010208B
:1042B00012900020139015901490169017904FF4C0
:1042C00080501890002019904FF480401A900020E0
:1042D0001B9008A81C9001A81D900FA8FEF734FBA6
:1042E00001210620FEF716FB322007F06BF9D320E0
:1042F00002F024FE02F0CEFACC49888002F0CAFA1D
:10430000CA49888002F0C6FAC84988800846808871
:104310004FF6FF7101EA0020C449888002F0BAFA22
:10432000C24989880843C14988800846808849F283
:10433000413188427DD0042002F000FE02F0AAFA4A
:10434000BA49888002F0A6FAB849888002F0A2FA39
:10435000B6498880084680884FF6FF7101EA002040
:10436000B249888002F096FAB04989880843AF497B
:1043700088800846808848F25251884203D147F22B
:104380008970AA498880A948808847F28971884243
:10439000D0D0D42002F0D2FD02F07CFAA34988806C
:1043A00002F078FAA149888002F074FA9F49888067
:1043B000084680884FF6FF7101EA00209B498880FB
:1043C00002F068FA99498988084398498880084624
:1043D000808845F21031884262D055214FF47040F8
:1043E00002F0BCFDAA214FF2010002F0B7FD5221FC
:1043F0004FF2020002F0B2FD08214FF2030002F07A
:10440000ADFD01214FF2040002F0A8FD4FF445403C
:1044100002F094FD02F03EFA8449888008468088C4
:104420004FF6FF7101EA0020804988804CF201506C
:1044300000E035E002F082FD02F02CFA7B49898829
:1044400008437A498880052007F0BCF877488088BF
:1044500045F21051884223D0A12002F06FFD02F0F6
:1044600019FA7249888002F015FA70498880084666
:1044700080884FF6FF7101EA00206C49888002F0C5
:1044800009FA6A498988084368498880084680880B
:1044900045F26171884203D141F663106349888017
:1044A0006248818862A0FBF759FF6048808849F222
:1044B000413188427ED1CF2002F040FD002002F041
:1044C00037FDC12002F034FD302002F031FDED2037
:1044D00002F034FD642002F02BFD032002F028FDE1
:1044E000122002F025FD812002F022FDE82002F0DA
:1044F00025FD852002F01CFD102002F019FD7A2018
:1045000002F016FDCB2002F019FD392002F010FD5B
:104510002C2002F00DFD002002F00AFD342002F0F4
:1045200007FD022002F004FDF72002F007FD202025
:1045300002F0FEFCEA2002F001FD002002F0F8FC8F
:10454000002002F0F5FCC02002F0F8FC1B2002F075
:10455000EFFCC12002F0F2FC012002F0E9FCC520D2
:1045600002F0ECFC302002F0E3FC302002F0E0FC32
:10457000C72002F0E3FCB72002F0DAFC362002F09C
:10458000DDFC482002F0D4FC3A2002F0D7FC552094
:1045900002F0CEFCB12002F0D1FC002002F0C8FCF9
:1045A0001A2002F0C5FCB62002F0C8FC0A2002F076
:1045B000BFFC00E0ABE0A22002F0BAFCF22002F067
:1045C000BDFC002002F0B4FC262002F0B7FC012064
:1045D00002F0AEFCE02002F0B1FC0F2002F0A8FCDB
:1045E0002A2002F0A5FC282002F0A2FC082002F0FC
:1045F0009FFC0E2002F09CFC082002F099FC542045
:1046000002F096FCA92002F093FC432002F090FCFB
:104610000A2002F08DFC0F2012E00000000C014087
:104620000014014000180140002001405C020020FD
:10463000204C43442049443A25780D0A00000000EC
:1046400002F076FC002002F073FC002002F070FC07
:10465000002002F06DFC002002F06AFCE12002F074
:104660006DFC002002F064FC152002F061FC1720B4
:1046700002F05EFC072002F05BFC112002F058FC07
:10468000062002F055FC2B2002F052FC562002F0CE
:104690004FFC3C2002F04CFC052002F049FC1020AD
:1046A00002F046FC0F2002F043FC3F2002F040FCE9
:1046B0003F2002F03DFC0F2002F03AFC2B2002F0DC
:1046C0003DFC002002F034FC002002F031FC01200F
:1046D00002F02EFC3F2002F02BFC2A2002F02EFCE0
:1046E000002002F025FC002002F022FC002002F055
:1046F0001FFCEF2002F01CFC112002F01FFC7820B0
:1047000006F060FF292002F019FC02F0A6B8FE486E
:10471000808847F2897188427ED1112002F00EFC18
:10472000782006F04FFF362002F008FC002002F04F
:10473000FFFB3A2002F002FC052002F0F9FBB22058
:1047400002F0FCFB0C2002F0F3FB0C2002F0F0FB6B
:10475000002002F0EDFB332002F0EAFB332002F0F0
:10476000E7FBB72002F0EAFB352002F0E1FBBB20BB
:1047700002F0E4FB322002F0DBFBC02002F0DEFBA3
:104780000C2002F0D5FBC22002F0D8FB012002F081
:10479000CFFBC32002F0D2FB102002F0C9FBC420E3
:1047A00002F0CCFB202002F0C3FBC62002F0C6FBC7
:1047B0000F2002F0BDFBD02002F0C0FBA42002F0CD
:1047C000B7FBA12002F0B4FBE02002F0B7FBD02041
:1047D00002F0AEFB002002F0ABFB022002F0A8FBCF
:1047E000072002F0A5FB0A2002F0A2FB282002F01D
:1047F0009FFB322002F09CFB442002F099FB4220F8
:1048000002F096FB062002F093FB0E2002F090FBD4
:10481000122002F08DFB00E054E0142002F088FB2F
:10482000172002F085FBE12002F088FBD02002F087
:104830007FFB002002F07CFB022002F079FB0720C6
:1048400002F076FB0A2002F073FB282002F070FBD6
:10485000312002F06DFB542002F06AFB472002F089
:1048600067FB0E2002F064FB1C2002F061FB1720A6
:1048700002F05EFB1B2002F05BFB1E2002F058FBE7
:104880002A2002F05BFB002002F052FB002002F025
:104890004FFB002002F04CFBEF2002F049FB2B20E5
:1048A00002F04CFB002002F043FB002002F040FB32
:1048B000012002F03DFB3F2002F03AFB292002F0EC
:1048C0003DFB22E79048808845F21031884240F055
:1048D0007C87ED2002F032FB012002F029FBFE2054
:1048E00002F026FBEE2002F029FBDE2002F020FB86
:1048F000212002F01DFBF12002F020FB012002F03C
:1049000017FBDF2002F01AFB102002F011FBC4207D
:1049100002F014FB8F2002F00BFBC62002F00EFB0E
:10492000002002F005FBE22002F002FBE22002F090
:10493000FFFAE22002F0FCFABF2002F0FFFAAA2000
:1049400002F0F6FAB02002F0F9FA0D2002F0F0FAC7
:10495000002002F0EDFA0D2002F0EAFA002002F049
:10496000E7FA112002F0E4FA002002F0E1FA19203F
:1049700002F0DEFA002002F0DBFA212002F0D8FA81
:10498000002002F0D5FA2D2002F0D2FA002002F029
:10499000CFFA3D2002F0CCFA002002F0C9FA5D20E7
:1049A00002F0C6FA002002F0C3FA5D2002F0C0FA5D
:1049B000002002F0BDFAB12002F0C0FA802002F01F
:1049C000B7FA002002F0B4FA8B2002F0B1FA00200E
:1049D00002F0AEFA962002F0ABFA002002F0A8FA3C
:1049E000B22002F0ABFA002002F0A2FA002002F09E
:1049F0009FFA022002F09CFA002002F099FA0320AC
:104A000002F096FA002002F093FAB32002F096FA30
:104A1000002002F08DFA002002F08AFA002002F055
:104A200087FA002002F084FA002002F081FA0020C8
:104A300002F07EFA002002F07BFA002002F078FA01
:104A4000002002F075FA002002F072FA002002F055
:104A50006FFA002002F06CFA002002F069FA0020E0
:104A600002F066FA002002F063FA002002F060FA19
:104A7000002002F05DFA002002F05AFA002002F055
:104A800057FA002002F054FA002002F051FA0020F8
:104A900002F04EFA002002F04BFA002002F048FA31
:104AA000B42002F04BFA8B2002F042FA002002F010
:104AB0003FFA962002F03CFA002002F039FAA120D9
:104AC00002F036FA002002F033FAB52002F036FA8E
:104AD000022002F02DFA002002F02AFA032002F050
:104AE00027FA002002F024FA042002F021FA002024
:104AF00002F01EFAB62002F021FA002002F018FAA5
:104B0000002002F015FA01E05C020020B72002F05C
:104B100015FA002002F00CFA002002F009FA3F20FA
:104B200002F006FA002002F003FA5E2002F000FA1A
:104B3000002002F0FDF9642002F0FAF9002002F0F2
:104B4000F7F98C2002F0F4F9002002F0F1F9AC2022
:104B500002F0EEF9002002F0EBF9DC2002F0E8F9B7
:104B6000002002F0E5F9702002F0E2F9002002F0E6
:104B7000DFF9902002F0DCF9002002F0D9F9EB20F7
:104B800002F0D6F9002002F0D3F9DC2002F0D0F9CF
:104B9000002002F0CDF9B82002F0D0F9002002F098
:104BA000C7F9002002F0C4F9002002F0C1F900208A
:104BB00002F0BEF9002002F0BBF9002002F0B8F9C3
:104BC000002002F0B5F9002002F0B2F9BA2002F09C
:104BD000B5F9242002F0ACF9002002F0A9F9002078
:104BE00002F0A6F9002002F0A3F9C12002F0A6F914
:104BF000202002F09DF9002002F09AF9542002F0E2
:104C000097F9002002F094F9FF2002F091F90020BA
:104C100002F08EF9C22002F091F90A2002F088F920
:104C2000002002F085F9042002F082F9002002F051
:104C30007FF9C32002F082F93C2002F079F90020CC
:104C400002F076F93A2002F073F9002002F070F9D0
:104C5000392002F06DF9002002F06AF9372002F0E5
:104C600067F9002002F064F93C2002F061F90020AD
:104C700002F05EF9362002F05BF9002002F058F9EC
:104C8000322002F055F9002002F052F92F2002F0F4
:104C90004FF9002002F04CF92C2002F049F90020D5
:104CA00002F046F9292002F043F9002002F040F911
:104CB000262002F03DF9002002F03AF9242002F00B
:104CC00037F9002002F034F9242002F031F90020F5
:104CD00002F02EF9232002F02BF9002002F028F92F
:104CE0003C2002F025F9002002F022F9362002F0E3
:104CF0001FF9002002F01CF9322002F019F90020FF
:104D000002F016F92F2002F013F9002002F010F93A
:104D10002C2002F00DF9002002F00AF9292002F0FF
:104D200007F9002002F004F9262002F001F9002022
:104D300002F0FEF8242002F0FBF8002002F0F8F860
:104D4000242002F0F5F8002002F0F2F8232002F00F
:104D5000EFF8002002F0ECF8C42002F0EFF8622037
:104D600002F0E6F8002002F0E3F8052002F0E0F897
:104D7000002002F0DDF8842002F0DAF8002002F0D2
:104D8000D7F8F02002F0D4F8002002F0D1F8182073
:104D900002F0CEF8002002F0CBF8A42002F0C8F810
:104DA000002002F0C5F8182002F0C2F8002002F03E
:104DB000BFF8502002F0BCF8002002F0B9F80C2037
:104DC00002F0B6F8002002F0B3F8172002F0B0F8B5
:104DD000002002F0ADF8952002F0AAF8002002F0C1
:104DE000A7F8F32002F0A4F8002002F0A1F8E620D2
:104DF00002F09EF8002002F09BF8C52002F09EF819
:104E0000322002F095F8002002F092F8442002F0DF
:104E10008FF8002002F08CF8652002F089F800205D
:104E200002F086F8762002F083F8002002F080F885
:104E3000882002F07DF8002002F07AF8C62002F007
:104E40007DF8202002F074F8002002F071F817209D
:104E500002F06EF8002002F06BF8012002F068F812
:104E6000002002F065F8C72002F068F8002002F088
:104E70005FF8002002F05CF8002002F059F80020F2
:104E800002F056F8C82002F059F8002002F050F85D
:104E9000002002F04DF8002002F04AF8002002F055
:104EA00047F8C92002F04AF8002002F041F800203B
:104EB00002F03EF8002002F03BF8002002F038F843
:104EC000002002F035F8002002F032F8002002F055
:104ED0002FF8002002F02CF8002002F029F8002022
:104EE00002F026F8002002F023F8002002F020F85B
:104EF000002002F01DF8002002F01AF8002002F055
:104F000017F8002002F014F8E02002F017F816203D
:104F100002F00EF8002002F00BF81C2002F008F856
:104F2000002002F005F8212002F002F8002001F034
:104F3000FFFF362001F0FCFF002001F0F9FF4620C2
:104F400001F0F6FF002001F0F3FF522001F0F0FF26
:104F5000002001F0EDFF642001F0EAFF002001F0E5
:104F6000E7FF7A2001F0E4FF002001F0E1FF8B2051
:104F700001F0DEFF002001F0DBFF992001F0D8FFF7
:104F8000002001F0D5FFA82001F0D2FF002001F0A1
:104F9000CFFFB92001F0CCFF002001F0C9FFC420F1
:104FA00001F0C6FF002001F0C3FFCA2001F0C0FFDE
:104FB000002001F0BDFFD22001F0BAFF002001F077
:104FC000B7FFD92001F0B4FF002001F0B1FFE020CD
:104FD00001F0AEFF002001F0ABFFF32001F0A8FFCD
:104FE000002001F0A5FFE12001F0A8FF162001F04C
:104FF0009FFF002001F09CFF1C2001F099FF002082
:1050000001F096FF222001F093FF002001F090FFB5
:10501000362001F08DFF002001F08AFF452001F0CD
:1050200087FF002001F084FF522001F081FF002063
:1050300001F07EFF642001F07BFF002001F078FF8B
:105040007A2001F075FF002001F072FF8B2001F043
:105050006FFF002001F06CFF992001F069FF002034
:1050600001F066FFA82001F063FF002001F060FF5F
:10507000B92001F05DFF002001F05AFFC42001F0CB
:1050800057FF002001F054FFCA2001F051FF00201B
:1050900001F04EFFD22001F04BFF002001F048FF4D
:1050A000D82001F045FF002001F042FFE02001F090
:1050B0003FFF002001F03CFFF32001F039FF00200A
:1050C00001F036FFE22001F039FF052001F030FF4A
:1050D000002001F02DFF0B2001F02AFF002001F03D
:1050E00027FF1B2001F024FF002001F021FF3420C6
:1050F00001F01EFF002001F01BFF442001F018FF0B
:10510000002001F015FF4F2001F012FF002001F0F8
:105110000FFF612001F00CFF002001F009FF792052
:1051200001F006FF002001F003FF882001F000FFDE
:10513000002001F0FDFE972001F0FAFE002001F0B2
:10514000F7FEA62001F0F4FE002001F0F1FEB720EA
:1051500001F0EEFE002001F0EBFEC22001F0E8FEBF
:10516000002001F0E5FEC72001F0E2FE002001F082
:10517000DFFED12001F0DCFE002001F0D9FED620B8
:1051800001F0D6FE002001F0D3FEDD2001F0D0FEBC
:10519000002001F0CDFEF32001F0CAFE002001F056
:1051A000C7FEE32001F0CAFE052001F0C1FE002089
:1051B00001F0BEFE0A2001F0BBFE002001F0B8FEA7
:1051C0001C2001F0B5FE002001F0B2FE332001F0FA
:1051D000AFFE002001F0ACFE442001F0A9FE00204B
:1051E00001F0A6FE502001F0A3FE002001F0A0FE79
:1051F000622001F09DFE002001F09AFE782001F06F
:1052000097FE002001F094FE882001F091FE00201E
:1052100001F08EFE972001F08BFE002001F088FE49
:10522000A62001F085FE002001F082FEB72001F0EB
:105230007FFE002001F07CFEC22001F079FE0020FC
:1052400001F076FEC72001F073FE002001F070FE31
:10525000D12001F06DFE002001F06AFED52001F0A2
:1052600067FE002001F064FEDD2001F061FE0020F9
:1052700001F05EFEF32001F05BFE002001F058FE1D
:10528000E42001F05BFE012001F052FE002001F05D
:105290004FFE012001F04CFE002001F049FE0220EB
:1052A00001F046FE002001F043FE2A2001F040FEFE
:1052B000002001F03DFE3C2001F03AFE002001F00C
:1052C00037FE4B2001F034FE002001F031FE5D205E
:1052D00001F02EFE002001F02BFE742001F028FECC
:1052E000002001F025FE842001F022FE002001F0C4
:1052F0001FFE932001F01CFE002001F019FEA220E9
:1053000001F016FE002001F013FEB32001F010FEA4
:10531000002001F00DFEBE2001F00AFE002001F089
:1053200007FEC42001F004FE002001F001FECD20A4
:1053300001F0FEFD002001F0FBFDD32001F0F8FD9F
:10534000002001F0F5FDDD2001F0F2FD002001F06C
:10535000EFFDF32001F0ECFD002001F0E9FDE52078
:1053600001F0ECFD002001F0E3FD002001F0E0FD84
:10537000002001F0DDFD002001F0DAFD022001F047
:10538000D7FD002001F0D4FD292001F0D1FD00203F
:1053900001F0CEFD3C2001F0CBFD002001F0C8FD66
:1053A0004B2001F0C5FD002001F0C2FD5D2001F0A1
:1053B000BFFD002001F0BCFD742001F0B9FD00200C
:1053C00001F0B6FD842001F0B3FD002001F0B0FD36
:1053D000932001F0ADFD002001F0AAFDA22001F014
:1053E000A7FD002001F0A4FDB32001F0A1FD0020E5
:1053F00001F09EFDBE2001F09BFD002001F098FD14
:10540000C42001F095FD002001F092FDCD2001F0B7
:105410008FFD002001F08CFDD32001F089FD0020DC
:1054200001F086FDDC2001F083FD002001F080FD0D
:10543000F32001F07DFD002001F07AFDE62001F06F
:105440007DFD112001F074FD002001F071FD34207C
:1054500001F06EFD002001F06BFD562001F068FDAB
:10546000002001F065FD762001F062FD002001F0D2
:105470005FFD772001F05CFD002001F059FD662002
:1054800001F056FD002001F053FD882001F050FD91
:10549000002001F04DFD992001F04AFD002001F0AF
:1054A00047FDBB2001F044FD002001F041FD9920A3
:1054B00001F03EFD002001F03BFD662001F038FDCB
:1054C000002001F035FD552001F032FD002001F0F3
:1054D0002FFD552001F02CFD002001F029FD452075
:1054E00001F026FD002001F023FD432001F020FD06
:1054F000002001F01DFD442001F01AFD002001F004
:1055000017FDE72001F01AFD322001F011FD002007
:1055100001F00EFD552001F00BFD002001F008FD0B
:10552000762001F005FD002001F002FD662001F06B
:10553000FFFC002001F0FCFC672001F0F9FC0020DA
:1055400001F0F6FC672001F0F3FC002001F0F0FC14
:10555000872001F0EDFC002001F0EAFC992001F029
:10556000E7FC002001F0E4FCBB2001F0E1FC00209E
:1055700001F0DEFC992001F0DBFC002001F0D8FCFA
:10558000772001F0D5FC002001F0D2FC442001F08E
:10559000CFFC002001F0CCFC562001F0C9FC00201B
:1055A00001F0C6FC232001F0C3FC002001F0C0FC88
:1055B000332001F0BDFC002001F0BAFC452001F0D1
:1055C000B7FC002001F0B4FCE82001F0B7FC00209B
:1055D00001F0AEFC002001F0ABFC992001F0A8FC2A
:1055E000002001F0A5FC872001F0A2FC002001F0C2
:1055F0009FFC882001F09CFC002001F099FC7720A2
:1056000001F096FC002001F093FC662001F090FC74
:10561000002001F08DFC882001F08AFC002001F0C0
:1056200087FCAA2001F084FC002001F081FCBB2053
:1056300001F07EFC002001F07BFC992001F078FC59
:10564000002001F075FC662001F072FC002001F0E2
:105650006FFC552001F06CFC002001F069FC552026
:1056600001F066FC002001F063FC442001F060FCC6
:10567000002001F05DFC442001F05AFC002001F004
:1056800057FC552001F054FC002001F051FCE920AA
:1056900001F054FCAA2001F04BFC002001F048FC72
:1056A000002001F045FC002001F042FC002001F048
:1056B00045FCAA2001F03CFCCF2001F03FFC00207B
:1056C00001F036FC002001F033FC002001F030FC3A
:1056D000002001F02DFC002001F02AFC002001F048
:1056E00027FC002001F024FC002001F021FC002018
:1056F00001F01EFC002001F01BFC002001F018FC52
:10570000002001F015FC002001F012FC002001F047
:105710000FFC002001F00CFC002001F009FC00202F
:1057200001F006FCF02001F009FC002001F000FC73
:10573000502001F0FDFB002001F0FAFB002001F0F9
:10574000F7FB002001F0F4FBF32001F0F7FB002051
:1057500001F0EEFBF92001F0F1FB062001F0E8FB7F
:10576000102001F0E5FB292001F0E2FB002001F010
:10577000DFFB3A2001F0E2FB552001F0D9FB1120BC
:1057800001F0DCFB642005F01DFF292001F0D6FBB1
:10579000352001F0D3FB002001F0CAFB512001F0BD
:1057A000CDFBFF2001F0C4FB532001F0C7FB2C20F0
:1057B00001F0BEFB552001F0C1FB822001F0B8FBD7
:1057C0002C2001F0BBFB01F048B8FE48808845F270
:1057D000105188427ED155214FF4704001F0BEFB3C
:1057E000AA214FF2010001F0B9FB52214FF2020051
:1057F00001F0B4FB08214FF2030001F0AFFB0121DF
:105800004FF2040001F0AAFB0D214FF4304001F0EB
:10581000A5FB0D214BF2010001F0A0FB0D214BF285
:10582000020001F09BFB34214FF4364001F096FB5F
:1058300034214BF2016001F091FB34214BF2026004
:1058400001F08CFB0D214FF4314001F087FB0D215D
:105850004BF2011001F082FB0D214BF2021001F01E
:105860007DFB34214FF4374001F078FB34214BF2BB
:10587000017001F073FB34214BF2027001F06EFBFA
:1058800000214FF4324001F069FB00214BF201206E
:1058900001F064FB00214BF2022001F05FFB2421A8
:1058A0004FF4384001F05AFB24214BF6010001F07F
:1058B00055FB24214BF6020001F050FB01214FF46F
:1058C0003F4001F04BFB0F214FF4334001F046FB0A
:1058D0000F2100E0FEE34BF2013001F03FFB0F210E
:1058E0004BF2023001F03AFB34214FF4394001F021
:1058F00035FB34214BF6011001F030FB34214BF61F
:10590000021001F02BFB08214FF4354001F026FB7B
:1059100008214BF2015001F021FB08214BF202500B
:1059200001F01CFB03214FF4424001F017FB24213E
:105930004FF43A4001F012FB24214BF6012001F014
:105940000DFB24214BF6022001F008FB00214FF44F
:105950003C4001F003FB78214BF6014001F0FEFAD8
:1059600000214BF6024001F0F9FA00214FF43D40CE
:1059700001F0F4FA78214BF6015001F0EFFA002122
:105980004BF6025001F0EAFA00214FF43E4001F0DC
:10599000E5FA64214BF6016001F0E0FA00214FF4D2
:1059A000514001F0DBFA33214DF2011001F0D6FA3B
:1059B00000214DF2021001F0D1FA34214DF2031012
:1059C00001F0CCFA00214DF2041001F0C7FA3A219F
:1059D0004DF2051001F0C2FA00214DF2061001F05F
:1059E000BDFA4A214DF2071001F0B8FA00214DF23C
:1059F000081001F0B3FA5C214DF2091001F0AEFA83
:105A000000214DF20A1001F0A9FA81214DF20B108C
:105A100001F0A4FA00214DF20C1001F09FFAA6212A
:105A20004DF20D1001F09AFA00214DF20E1001F026
:105A300095FAE5214DF20F1001F090FA01214DF297
:105A4000101001F08BFA13214DF2111001F086FABB
:105A500001214DF2121001F081FA54214DF2131080
:105A600001F07CFA01214DF2141001F077FA822145
:105A70004DF2151001F072FA01214DF2161001F0ED
:105A80006DFACA214DF2171001F068FA02214DF2A9
:105A9000181001F063FA00214DF2191001F05EFABE
:105AA00002214DF21A1001F059FA01214DF21B109A
:105AB00001F054FA02214DF21C1001F04FFA34218A
:105AC0004DF21D1001F04AFA02214DF21E1001F0B4
:105AD00045FA67214DF21F1001F040FA02214DF204
